:020000040000FA
:100000002500CD0A0F0E3500060CF5012A0C23063B
:10001000310CD501200A3C0C0600800C3500460648
:100020000F0A300C3400F402130A030446060305D9
:10003000200C35030307120A3400F4021D0A1502CE
:100040003400380C06000B0C38004604200C3A0033
:10005000FA02280A0305340303074604030646058B
:10006000F802270A0008240C58093A0C0600790007
:10007000F9004306FF080604000C2606010C0605DD
:10008000000D4307380A770074000B0C3900060492
:10009000260674050605030434033703F902470AEC
:1000A0000008680C580911025809690C5809100217
:1000B0003700380C06001702340094039401340012
:1000C000410CF4017C0C3401020CF4017403740043
:1000D000740377037403540574050C0C350017067C
:1000E0002605170726040604060534033703F50220
:1000F0006F0A0008380C0600110C340026050604AF
:100100000605F4027F0AE00C5809FF0C5809880C18
:100110005809D80C5809CD0C5809450C5809AB0C96
:100120005809890C5809120C580AF30C58091D0C6F
:100130005809640C580912025809640C5809130232
:100140005809720C58093509F706A10A0008F30C82
:100150005809140C58099D0A100C24007600600000
:100160000B09300CB5000307B00A0A0C9500030711
:10017000C30A110C95000307B00A170C950003067B
:10018000B00A070CB500A00315022001B60216063E
:10019000B00AA4020406AF0A0008380C0600060CD8
:1001A0002600C00C02000A0C2009230C20090B09B0
:1001B000490C95000306D30A410CB5000307D30A86
:1001C0001502E201ED0A7A09D30A0604D30AFB0AF2
:1001D000F00A120CAD099509D30AAC095109D30AEA
:1001E0003309970302091702020933099703020929
:0E01F00017020209D30A11055109A709D30A03
:021FFE00FB0FD7
:00000001FF
