:1000000064002500030AFD093400FE093500700074
:1000100071007200730064000D0AFC0901023700D0
:1000200017024307140A150A0E0A13024306190A97
:100030001B0A010C1C0A000C330013023F001F03B3
:100040000307260403062605120221006606290A74
:100050002A0A320A100C940143072F0A300A320A86
:1000600046044C0A6607350A360A3E0A100C94010B
:1000700043073B0A3C0A3E0A46054C0A6606410A0B
:10008000420A4C0A240C94014307470A480A4C0AC6
:10009000010C3F001F02F101330C91000307510ACC
:1000A000520A5E0A010C3F001F02F001D50043070F
:1000B0005A0A5B0A5D0A46045E0A46056607610A3B
:1000C000620A0E0A330C91000307670A680A0E0AD7
:1000D0001F0C900003076D0A6E0A0E0AD500430735
:1000E000720A730A750A7500770A7500B502710005
:1000F00070000E0A020A850C02000B0C0600070CA9
:1001000026006100000C0606010C3600D6004307ED
:100110008A0A8B0A8E0A7E0C3200900A640C320026
:10012000000C2606010C3600D6004307980A990AEF
:100130009C0A240C34009E0A100C3400090C0600A2
:060140001202210000087C
:0601F8007B0A100801085B
:08020000FF0FFF0FFF0FFF0FBE
:021FFE00EB0FE7
:00000001FF
