:10000000F8940FE50DBF00E00EBF02E018ED1CBF35
:1000100006BF129A0A9810E11F9300E20F931BD0BB
:100020000F9103950137D1F71F911A95A9F710D0B9
:10003000E8E9F0E405D0E8EAF0E402D01CD0EBCF28
:100040000191003009F4089506D0FACF00E203C010
:100050000DE001D00AE0F8940A9A129812B15FE01C
:1000600013E41A95F1F712B100FB12F956950795B2
:1000700012B9B1F718950A98129A00E80299FECFC2
:10008000F89416E61150F1F714E4029908940795D4
:10009000C8F71A95F1F7189548656C6C6F2C2057C6
:1000A0006F726C64210D0A00546865207175696374
:1000B0006B2062726F776E20666F78206A756D7044
:1000C00073206F76657220746865206C617A792080
:0800D000646F67210D0A0000B6
:00000001FF
