:020000040000FA
:1000000025000309900AF70C02000B0C2700F90CDD
:1000100006006D006E006F00750000082800F90CE6
:1000200029000400E902110AE8020F0A00080D0283
:1000300030000E023100690040090902AF000306DA
:10004000260AEE00FF0C8E014306ED001102AE0001
:100050000307ED001002AD000B0230000C0231006E
:10006000690040090902EF010307390AAE0243069D
:10007000AD021102EE010306AD021002ED0100080F
:10008000050C28000304300331032903E802420A67
:1000900000080D0232000E0233000C02B300030709
:1000A000F2000B02B20003065D0A0B022D000C02E7
:1000B0002E0072007300150400081504010C66067A
:1000C000000C92004307680A320C6606100C93007D
:1000D0000307000815050008F70C02000B0C2700A9
:1000E000FF0C2C006100210C0E09670401022B009B
:1000F000D70C0200AC0201028B0143067A0A03040A
:100100006C034C03EC010307870AFF0C2C006C0204
:1001100003042B032C0303042B032C0367040008A4
:10012000210C0E09310C3300010C32005D09000076
:100130006C090B022D000C022E006C0917094909ED
:100140001506A40A1507A60A2604A80A2605A80A61
:020150009D0A06
:021FFE00EF0FE3
:00000001FF
