:020000040000FA
:100000002500000C020070000F0C060066070A0AAB
:1000100003000000B002070C90014307110A010C15
:10002000300066070A0AFF0C3100200C3200660718
:100030000A0AF202170AF102150A1E0A040C260027
:100040000A0C060048093D09010C26000A0C0600AE
:1000500048093D09040C2600090C060048093D0921
:10006000030C2600080C060048093D09010C260077
:100070000A0C060048093D09510A0F0C0600FF0C46
:1000800031004F0C3200F102430AF202430A000829
:10009000FF0C3100170C3200F1024C0AF2024C0A3C
:1000A0000008FF0C31000F0C32000F0C0600730922
:1000B0001002780926001002800906006E090F0C54
:1000C0000600730910028809260010029009060034
:1000D0006E09F102550AF202550A040A200C330097
:1000E000F302700A0008200C3400F402750A0008BC
:1000F000E2010008000801080108010801080308DE
:10010000E2010F080F08080808080808080808088E
:10011000E2010008040804080408040804080408AC
:10012000E2010F0809080F0809080A0808080A0868
:0401300000080008BB
:021FFE00EB0FE7
:00000001FF
