:020000040000FA
:100000006600010C3000C70C0200260926097500A5
:100010003A093300B50233024307130A26092609B9
:1000200026092609080A1302070E34003303330396
:100030003303FD0C0600010C33030306020F2D09E8
:100040002609F402190A26092609080AFF0C0600E7
:10005000200C2D09E00C2D0900083200B203C80C59
:100060003100FA0CD0014307320AF102310AF202E0
:100070002F0A00081502E2012C0801082C080208CA
:100080000008010803080908000823080A080008F6
:10009000010803080308120802080008F508000810
:1000A000E5080008C50800088508000805080008DC
:1000B0000D0800081D0800083D0800087D0800081C
:0800C000000800080008070A0F
:021FFE00E00FF2
:00000001FF
